{
  "_format": "hh-sol-artifact-1",
  "contractName": "EmissionRegistry",
  "sourceName": "contracts/EmissionRegistry.sol",
  "abi": [
    {
      "inputs": [
        {
          "internalType": "address",
          "name": "tokenAddress",
          "type": "address"
        },
        {
          "internalType": "address",
          "name": "marketAddress",
          "type": "address"
        }
      ],
      "stateMutability": "nonpayable",
      "type": "constructor"
    },
    {
      "anonymous": false,
      "inputs": [
        {
          "indexed": false,
          "internalType": "address",
          "name": "company",
          "type": "address"
        }
      ],
      "name": "CompanyRegistered",
      "type": "event"
    },
    {
      "anonymous": false,
      "inputs": [
        {
          "indexed": false,
          "internalType": "address",
          "name": "company",
          "type": "address"
        },
        {
          "indexed": false,
          "internalType": "int256",
          "name": "creditsChange",
          "type": "int256"
        }
      ],
      "name": "CreditsUpdated",
      "type": "event"
    },
    {
      "anonymous": false,
      "inputs": [
        {
          "indexed": false,
          "internalType": "address",
          "name": "company",
          "type": "address"
        },
        {
          "indexed": false,
          "internalType": "uint256",
          "name": "amount",
          "type": "uint256"
        }
      ],
      "name": "EmissionRecorded",
      "type": "event"
    },
    {
      "inputs": [],
      "name": "emissionCap",
      "outputs": [
        {
          "internalType": "uint256",
          "name": "",
          "type": "uint256"
        }
      ],
      "stateMutability": "view",
      "type": "function"
    },
    {
      "inputs": [],
      "name": "getMyRecords",
      "outputs": [
        {
          "components": [
            {
              "internalType": "uint256",
              "name": "timestamp",
              "type": "uint256"
            },
            {
              "internalType": "uint256",
              "name": "emissionAmount",
              "type": "uint256"
            },
            {
              "internalType": "int256",
              "name": "creditsChange",
              "type": "int256"
            }
          ],
          "internalType": "struct EmissionRegistry.EmissionRecord[]",
          "name": "",
          "type": "tuple[]"
        }
      ],
      "stateMutability": "view",
      "type": "function"
    },
    {
      "inputs": [],
      "name": "marketplace",
      "outputs": [
        {
          "internalType": "contract CarbonMarketplace",
          "name": "",
          "type": "address"
        }
      ],
      "stateMutability": "view",
      "type": "function"
    },
    {
      "inputs": [
        {
          "internalType": "uint256",
          "name": "value",
          "type": "uint256"
        }
      ],
      "name": "recordEmission",
      "outputs": [],
      "stateMutability": "nonpayable",
      "type": "function"
    },
    {
      "inputs": [],
      "name": "registerCompany",
      "outputs": [],
      "stateMutability": "nonpayable",
      "type": "function"
    },
    {
      "inputs": [
        {
          "internalType": "address",
          "name": "",
          "type": "address"
        }
      ],
      "name": "registered",
      "outputs": [
        {
          "internalType": "bool",
          "name": "",
          "type": "bool"
        }
      ],
      "stateMutability": "view",
      "type": "function"
    },
    {
      "inputs": [],
      "name": "token",
      "outputs": [
        {
          "internalType": "contract CarbonCreditToken",
          "name": "",
          "type": "address"
        }
      ],
      "stateMutability": "view",
      "type": "function"
    }
  ],
  "bytecode": "0x608060405260646000553480156200001657600080fd5b506040516200105a3803806200105a83398181016040528101906200003c919062000130565b81600160006101000a81548173ffffffffffffffffffffffffffffffffffffffff021916908373ffffffffffffffffffffffffffffffffffffffff16021790555080600260006101000a81548173ffffffffffffffffffffffffffffffffffffffff021916908373ffffffffffffffffffffffffffffffffffffffff160217905550505062000177565b600080fd5b600073ffffffffffffffffffffffffffffffffffffffff82169050919050565b6000620000f882620000cb565b9050919050565b6200010a81620000eb565b81146200011657600080fd5b50565b6000815190506200012a81620000ff565b92915050565b600080604083850312156200014a5762000149620000c6565b5b60006200015a8582860162000119565b92505060206200016d8582860162000119565b9150509250929050565b610ed380620001876000396000f3fe608060405234801561001057600080fd5b506004361061007d5760003560e01c8063abc8c7af1161005b578063abc8c7af146100c6578063b2dd5c07146100e4578063e76637ce14610114578063fc0c546a146101325761007d565b80630cd8bbc51461008257806324f90569146100a05780637cad1107146100bc575b600080fd5b61008a610150565b60405161009791906108cf565b60405180910390f35b6100ba60048036038101906100b5919061091b565b610156565b005b6100c4610672565b005b6100ce610790565b6040516100db91906109c7565b60405180910390f35b6100fe60048036038101906100f99190610a20565b6107b6565b60405161010b9190610a68565b60405180910390f35b61011c6107d6565b6040516101299190610b9c565b60405180910390f35b61013a610890565b6040516101479190610bdf565b60405180910390f35b60005481565b600460003373ffffffffffffffffffffffffffffffffffffffff1673ffffffffffffffffffffffffffffffffffffffff16815260200190815260200160002060009054906101000a900460ff166101e2576040517f08c379a00000000000000000000000000000000000000000000000000000000081526004016101d990610c57565b60405180910390fd5b600080548210156102aa576000826000546101fd9190610ca6565b9050600160009054906101000a900473ffffffffffffffffffffffffffffffffffffffff1673ffffffffffffffffffffffffffffffffffffffff166340c10f1933670de0b6b3a7640000846102529190610cda565b6040518363ffffffff1660e01b815260040161026f929190610d2b565b600060405180830381600087803b15801561028957600080fd5b505af115801561029d573d6000803e3d6000fd5b5050505080915050610559565b6000548211156105585760008054836102c39190610ca6565b90506000670de0b6b3a7640000826102db9190610cda565b90506000600160009054906101000a900473ffffffffffffffffffffffffffffffffffffffff1673ffffffffffffffffffffffffffffffffffffffff166370a08231336040518263ffffffff1660e01b815260040161033a9190610d54565b602060405180830381865afa158015610357573d6000803e3d6000fd5b505050506040513d601f19601f8201168201806040525081019061037b9190610d84565b905081811061041857600160009054906101000a900473ffffffffffffffffffffffffffffffffffffffff1673ffffffffffffffffffffffffffffffffffffffff166379cc679033846040518363ffffffff1660e01b81526004016103e1929190610d2b565b600060405180830381600087803b1580156103fb57600080fd5b505af115801561040f573d6000803e3d6000fd5b50505050610548565b600160009054906101000a900473ffffffffffffffffffffffffffffffffffffffff1673ffffffffffffffffffffffffffffffffffffffff166379cc679033836040518363ffffffff1660e01b8152600401610475929190610d2b565b600060405180830381600087803b15801561048f57600080fd5b505af11580156104a3573d6000803e3d6000fd5b50505050600081836104b59190610ca6565b9050600260009054906101000a900473ffffffffffffffffffffffffffffffffffffffff1673ffffffffffffffffffffffffffffffffffffffff166376aeed5833836040518363ffffffff1660e01b8152600401610514929190610d2b565b600060405180830381600087803b15801561052e57600080fd5b505af1158015610542573d6000803e3d6000fd5b50505050505b8261055290610db1565b93505050505b5b600360003373ffffffffffffffffffffffffffffffffffffffff1673ffffffffffffffffffffffffffffffffffffffff168152602001908152602001600020604051806060016040528042815260200184815260200183815250908060018154018082558091505060019003906000526020600020906003020160009091909190915060008201518160000155602082015181600101556040820151816002015550507ff5ac620b2aa941b56ed35bdee9e867c1be7b75eedd17fb59c82d1d2c244cd799338360405161062d929190610d2b565b60405180910390a17fbdb3968cbc53e11446e8095bb8ee40982de22e09004beebd957ff345921577d23382604051610666929190610e08565b60405180910390a15050565b600460003373ffffffffffffffffffffffffffffffffffffffff1673ffffffffffffffffffffffffffffffffffffffff16815260200190815260200160002060009054906101000a900460ff16156106ff576040517f08c379a00000000000000000000000000000000000000000000000000000000081526004016106f690610e7d565b60405180910390fd5b6001600460003373ffffffffffffffffffffffffffffffffffffffff1673ffffffffffffffffffffffffffffffffffffffff16815260200190815260200160002060006101000a81548160ff0219169083151502179055507f62806c829f7c8d0f1563dbdcf4f05f12a6b3c0e29ab581b0ccdffd608e993938336040516107869190610d54565b60405180910390a1565b600260009054906101000a900473ffffffffffffffffffffffffffffffffffffffff1681565b60046020528060005260406000206000915054906101000a900460ff1681565b6060600360003373ffffffffffffffffffffffffffffffffffffffff1673ffffffffffffffffffffffffffffffffffffffff168152602001908152602001600020805480602002602001604051908101604052809291908181526020016000905b828210156108875783829060005260206000209060030201604051806060016040529081600082015481526020016001820154815260200160028201548152505081526020019060010190610837565b50505050905090565b600160009054906101000a900473ffffffffffffffffffffffffffffffffffffffff1681565b6000819050919050565b6108c9816108b6565b82525050565b60006020820190506108e460008301846108c0565b92915050565b600080fd5b6108f8816108b6565b811461090357600080fd5b50565b600081359050610915816108ef565b92915050565b600060208284031215610931576109306108ea565b5b600061093f84828501610906565b91505092915050565b600073ffffffffffffffffffffffffffffffffffffffff82169050919050565b6000819050919050565b600061098d61098861098384610948565b610968565b610948565b9050919050565b600061099f82610972565b9050919050565b60006109b182610994565b9050919050565b6109c1816109a6565b82525050565b60006020820190506109dc60008301846109b8565b92915050565b60006109ed82610948565b9050919050565b6109fd816109e2565b8114610a0857600080fd5b50565b600081359050610a1a816109f4565b92915050565b600060208284031215610a3657610a356108ea565b5b6000610a4484828501610a0b565b91505092915050565b60008115159050919050565b610a6281610a4d565b82525050565b6000602082019050610a7d6000830184610a59565b92915050565b600081519050919050565b600082825260208201905092915050565b6000819050602082019050919050565b610ab8816108b6565b82525050565b6000819050919050565b610ad181610abe565b82525050565b606082016000820151610aed6000850182610aaf565b506020820151610b006020850182610aaf565b506040820151610b136040850182610ac8565b50505050565b6000610b258383610ad7565b60608301905092915050565b6000602082019050919050565b6000610b4982610a83565b610b538185610a8e565b9350610b5e83610a9f565b8060005b83811015610b8f578151610b768882610b19565b9750610b8183610b31565b925050600181019050610b62565b5085935050505092915050565b60006020820190508181036000830152610bb68184610b3e565b905092915050565b6000610bc982610994565b9050919050565b610bd981610bbe565b82525050565b6000602082019050610bf46000830184610bd0565b92915050565b600082825260208201905092915050565b7f4e6f742072656769737465726564000000000000000000000000000000000000600082015250565b6000610c41600e83610bfa565b9150610c4c82610c0b565b602082019050919050565b60006020820190508181036000830152610c7081610c34565b9050919050565b7f4e487b7100000000000000000000000000000000000000000000000000000000600052601160045260246000fd5b6000610cb1826108b6565b9150610cbc836108b6565b9250828203905081811115610cd457610cd3610c77565b5b92915050565b6000610ce5826108b6565b9150610cf0836108b6565b9250828202610cfe816108b6565b91508282048414831517610d1557610d14610c77565b5b5092915050565b610d25816109e2565b82525050565b6000604082019050610d406000830185610d1c565b610d4d60208301846108c0565b9392505050565b6000602082019050610d696000830184610d1c565b92915050565b600081519050610d7e816108ef565b92915050565b600060208284031215610d9a57610d996108ea565b5b6000610da884828501610d6f565b91505092915050565b6000610dbc82610abe565b91507f80000000000000000000000000000000000000000000000000000000000000008203610dee57610ded610c77565b5b816000039050919050565b610e0281610abe565b82525050565b6000604082019050610e1d6000830185610d1c565b610e2a6020830184610df9565b9392505050565b7f416c726561647920726567697374657265640000000000000000000000000000600082015250565b6000610e67601283610bfa565b9150610e7282610e31565b602082019050919050565b60006020820190508181036000830152610e9681610e5a565b905091905056fea264697066735822122091b1301780d76e111cefd5105f83f437924fcf9b4ee704dda28405044d647e5864736f6c63430008180033",
  "linkReferences": {},
  "deployedLinkReferences": {}
}