{
  "_format": "hh-sol-artifact-1",
  "contractName": "CarbonMarketplace",
  "sourceName": "contracts/CarbonMarketplace.sol",
  "abi": [
    {
      "inputs": [
        {
          "internalType": "address",
          "name": "tokenAddress",
          "type": "address"
        }
      ],
      "stateMutability": "nonpayable",
      "type": "constructor"
    },
    {
      "anonymous": false,
      "inputs": [
        {
          "indexed": false,
          "internalType": "uint256",
          "name": "listingId",
          "type": "uint256"
        },
        {
          "indexed": false,
          "internalType": "address",
          "name": "seller",
          "type": "address"
        },
        {
          "indexed": false,
          "internalType": "address",
          "name": "buyer",
          "type": "address"
        },
        {
          "indexed": false,
          "internalType": "uint256",
          "name": "amount",
          "type": "uint256"
        },
        {
          "indexed": false,
          "internalType": "uint256",
          "name": "totalPrice",
          "type": "uint256"
        }
      ],
      "name": "CreditsPurchased",
      "type": "event"
    },
    {
      "inputs": [
        {
          "internalType": "uint256",
          "name": "listingId",
          "type": "uint256"
        },
        {
          "internalType": "uint256",
          "name": "amountToBuy",
          "type": "uint256"
        }
      ],
      "name": "buyCredits",
      "outputs": [],
      "stateMutability": "payable",
      "type": "function"
    },
    {
      "inputs": [
        {
          "internalType": "uint256",
          "name": "listingId",
          "type": "uint256"
        }
      ],
      "name": "getListing",
      "outputs": [
        {
          "internalType": "address",
          "name": "seller",
          "type": "address"
        },
        {
          "internalType": "uint256",
          "name": "totalAmount",
          "type": "uint256"
        },
        {
          "internalType": "uint256",
          "name": "remainingAmount",
          "type": "uint256"
        },
        {
          "internalType": "uint256",
          "name": "pricePerCredit",
          "type": "uint256"
        },
        {
          "internalType": "bool",
          "name": "active",
          "type": "bool"
        }
      ],
      "stateMutability": "view",
      "type": "function"
    },
    {
      "inputs": [
        {
          "internalType": "uint256",
          "name": "amount",
          "type": "uint256"
        },
        {
          "internalType": "uint256",
          "name": "pricePerCredit",
          "type": "uint256"
        }
      ],
      "name": "listCredits",
      "outputs": [],
      "stateMutability": "nonpayable",
      "type": "function"
    },
    {
      "inputs": [],
      "name": "listingCounter",
      "outputs": [
        {
          "internalType": "uint256",
          "name": "",
          "type": "uint256"
        }
      ],
      "stateMutability": "view",
      "type": "function"
    },
    {
      "inputs": [
        {
          "internalType": "uint256",
          "name": "",
          "type": "uint256"
        }
      ],
      "name": "listings",
      "outputs": [
        {
          "internalType": "address",
          "name": "seller",
          "type": "address"
        },
        {
          "internalType": "uint256",
          "name": "totalAmount",
          "type": "uint256"
        },
        {
          "internalType": "uint256",
          "name": "remainingAmount",
          "type": "uint256"
        },
        {
          "internalType": "uint256",
          "name": "pricePerCredit",
          "type": "uint256"
        },
        {
          "internalType": "bool",
          "name": "active",
          "type": "bool"
        }
      ],
      "stateMutability": "view",
      "type": "function"
    },
    {
      "inputs": [
        {
          "internalType": "address",
          "name": "user",
          "type": "address"
        },
        {
          "internalType": "uint256",
          "name": "amount",
          "type": "uint256"
        }
      ],
      "name": "reduceListing",
      "outputs": [],
      "stateMutability": "nonpayable",
      "type": "function"
    },
    {
      "inputs": [],
      "name": "registry",
      "outputs": [
        {
          "internalType": "address",
          "name": "",
          "type": "address"
        }
      ],
      "stateMutability": "view",
      "type": "function"
    },
    {
      "inputs": [
        {
          "internalType": "address",
          "name": "_registry",
          "type": "address"
        }
      ],
      "name": "setRegistry",
      "outputs": [],
      "stateMutability": "nonpayable",
      "type": "function"
    },
    {
      "inputs": [],
      "name": "token",
      "outputs": [
        {
          "internalType": "contract CarbonCreditToken",
          "name": "",
          "type": "address"
        }
      ],
      "stateMutability": "view",
      "type": "function"
    }
  ],
  "bytecode": "0x60806040523480156200001157600080fd5b50604051620016f9380380620016f98339818101604052810190620000379190620000e8565b806000806101000a81548173ffffffffffffffffffffffffffffffffffffffff021916908373ffffffffffffffffffffffffffffffffffffffff160217905550506200011a565b600080fd5b600073ffffffffffffffffffffffffffffffffffffffff82169050919050565b6000620000b08262000083565b9050919050565b620000c281620000a3565b8114620000ce57600080fd5b50565b600081519050620000e281620000b7565b92915050565b6000602082840312156200010157620001006200007e565b5b60006200011184828501620000d1565b91505092915050565b6115cf806200012a6000396000f3fe6080604052600436106100865760003560e01c806376aeed581161005957806376aeed581461013c5780637b10399914610165578063a91ee0dc14610190578063de74e57b146101b9578063fc0c546a146101fa57610086565b8063107a274a1461008b578063353395e6146100cc578063479c8457146100f55780636c2c9c7d14610111575b600080fd5b34801561009757600080fd5b506100b260048036038101906100ad9190610d3f565b610225565b6040516100c3959493929190610dd7565b60405180910390f35b3480156100d857600080fd5b506100f360048036038101906100ee9190610e2a565b61030a565b005b61010f600480360381019061010a9190610e2a565b6105c3565b005b34801561011d57600080fd5b5061012661093d565b6040516101339190610e6a565b60405180910390f35b34801561014857600080fd5b50610163600480360381019061015e9190610eb1565b610943565b005b34801561017157600080fd5b5061017a610c13565b6040516101879190610ef1565b60405180910390f35b34801561019c57600080fd5b506101b760048036038101906101b29190610f0c565b610c39565b005b3480156101c557600080fd5b506101e060048036038101906101db9190610d3f565b610c7d565b6040516101f1959493929190610dd7565b60405180910390f35b34801561020657600080fd5b5061020f610ce0565b60405161021c9190610f98565b60405180910390f35b600080600080600080600260008881526020019081526020016000206040518060a00160405290816000820160009054906101000a900473ffffffffffffffffffffffffffffffffffffffff1673ffffffffffffffffffffffffffffffffffffffff1673ffffffffffffffffffffffffffffffffffffffff1681526020016001820154815260200160028201548152602001600382015481526020016004820160009054906101000a900460ff161515151581525050905080600001518160200151826040015183606001518460800151955095509550955095505091939590929450565b6000821161034d576040517f08c379a000000000000000000000000000000000000000000000000000000000815260040161034490611010565b60405180910390fd5b8160008054906101000a900473ffffffffffffffffffffffffffffffffffffffff1673ffffffffffffffffffffffffffffffffffffffff166370a08231336040518263ffffffff1660e01b81526004016103a79190610ef1565b602060405180830381865afa1580156103c4573d6000803e3d6000fd5b505050506040513d601f19601f820116820180604052508101906103e89190611045565b1015610429576040517f08c379a0000000000000000000000000000000000000000000000000000000008152600401610420906110be565b60405180910390fd5b60008054906101000a900473ffffffffffffffffffffffffffffffffffffffff1673ffffffffffffffffffffffffffffffffffffffff166323b872dd3330856040518463ffffffff1660e01b8152600401610486939291906110de565b6020604051808303816000875af11580156104a5573d6000803e3d6000fd5b505050506040513d601f19601f820116820180604052508101906104c99190611141565b50600160008154809291906104dd9061119d565b91905055506040518060a001604052803373ffffffffffffffffffffffffffffffffffffffff1681526020018381526020018381526020018281526020016001151581525060026000600154815260200190815260200160002060008201518160000160006101000a81548173ffffffffffffffffffffffffffffffffffffffff021916908373ffffffffffffffffffffffffffffffffffffffff16021790555060208201518160010155604082015181600201556060820151816003015560808201518160040160006101000a81548160ff0219169083151502179055509050505050565b60006002600084815260200190815260200160002090508060040160009054906101000a900460ff1661062b576040517f08c379a000000000000000000000000000000000000000000000000000000000815260040161062290611231565b60405180910390fd5b6000821161066e576040517f08c379a000000000000000000000000000000000000000000000000000000000815260040161066590611010565b60405180910390fd5b80600201548211156106b5576040517f08c379a00000000000000000000000000000000000000000000000000000000081526004016106ac9061129d565b60405180910390fd5b6000670de0b6b3a76400008383600301546106d091906112bd565b6106da919061132e565b90508034101561071f576040517f08c379a0000000000000000000000000000000000000000000000000000000008152600401610716906113ab565b60405180910390fd5b60008054906101000a900473ffffffffffffffffffffffffffffffffffffffff1673ffffffffffffffffffffffffffffffffffffffff1663a9059cbb33856040518363ffffffff1660e01b815260040161077a9291906113cb565b6020604051808303816000875af1158015610799573d6000803e3d6000fd5b505050506040513d601f19601f820116820180604052508101906107bd9190611141565b5060008260000160009054906101000a900473ffffffffffffffffffffffffffffffffffffffff1673ffffffffffffffffffffffffffffffffffffffff163460405161080890611425565b60006040518083038185875af1925050503d8060008114610845576040519150601f19603f3d011682016040523d82523d6000602084013e61084a565b606091505b505090508061088e576040517f08c379a000000000000000000000000000000000000000000000000000000000815260040161088590611486565b60405180910390fd5b838360020160008282546108a291906114a6565b9250508190555060008360020154036108d35760008360040160006101000a81548160ff0219169083151502179055505b7fbdb81a3dcdbc26849893f83eee04c656ebd4f1088f166df2ba8ffb51080f6c94858460000160009054906101000a900473ffffffffffffffffffffffffffffffffffffffff1633878660405161092e9594939291906114da565b60405180910390a15050505050565b60015481565b600360009054906101000a900473ffffffffffffffffffffffffffffffffffffffff1673ffffffffffffffffffffffffffffffffffffffff163373ffffffffffffffffffffffffffffffffffffffff16146109d3576040517f08c379a00000000000000000000000000000000000000000000000000000000081526004016109ca90611579565b60405180910390fd5b60008190506000600190505b6001548111610c0c5760006002600083815260200190815260200160002090508473ffffffffffffffffffffffffffffffffffffffff168160000160009054906101000a900473ffffffffffffffffffffffffffffffffffffffff1673ffffffffffffffffffffffffffffffffffffffff16148015610a6c57508060040160009054906101000a900460ff165b15610bf8578281600201541115610b2d5782816002016000828254610a9191906114a6565b9250508190555060008054906101000a900473ffffffffffffffffffffffffffffffffffffffff1673ffffffffffffffffffffffffffffffffffffffff166379cc679030856040518363ffffffff1660e01b8152600401610af39291906113cb565b600060405180830381600087803b158015610b0d57600080fd5b505af1158015610b21573d6000803e3d6000fd5b50505050505050610c0f565b806002015483610b3d91906114a6565b925060008054906101000a900473ffffffffffffffffffffffffffffffffffffffff1673ffffffffffffffffffffffffffffffffffffffff166379cc67903083600201546040518363ffffffff1660e01b8152600401610b9e9291906113cb565b600060405180830381600087803b158015610bb857600080fd5b505af1158015610bcc573d6000803e3d6000fd5b505050506000816002018190555060008160040160006101000a81548160ff0219169083151502179055505b508080610c049061119d565b9150506109df565b50505b5050565b600360009054906101000a900473ffffffffffffffffffffffffffffffffffffffff1681565b80600360006101000a81548173ffffffffffffffffffffffffffffffffffffffff021916908373ffffffffffffffffffffffffffffffffffffffff16021790555050565b60026020528060005260406000206000915090508060000160009054906101000a900473ffffffffffffffffffffffffffffffffffffffff16908060010154908060020154908060030154908060040160009054906101000a900460ff16905085565b60008054906101000a900473ffffffffffffffffffffffffffffffffffffffff1681565b600080fd5b6000819050919050565b610d1c81610d09565b8114610d2757600080fd5b50565b600081359050610d3981610d13565b92915050565b600060208284031215610d5557610d54610d04565b5b6000610d6384828501610d2a565b91505092915050565b600073ffffffffffffffffffffffffffffffffffffffff82169050919050565b6000610d9782610d6c565b9050919050565b610da781610d8c565b82525050565b610db681610d09565b82525050565b60008115159050919050565b610dd181610dbc565b82525050565b600060a082019050610dec6000830188610d9e565b610df96020830187610dad565b610e066040830186610dad565b610e136060830185610dad565b610e206080830184610dc8565b9695505050505050565b60008060408385031215610e4157610e40610d04565b5b6000610e4f85828601610d2a565b9250506020610e6085828601610d2a565b9150509250929050565b6000602082019050610e7f6000830184610dad565b92915050565b610e8e81610d8c565b8114610e9957600080fd5b50565b600081359050610eab81610e85565b92915050565b60008060408385031215610ec857610ec7610d04565b5b6000610ed685828601610e9c565b9250506020610ee785828601610d2a565b9150509250929050565b6000602082019050610f066000830184610d9e565b92915050565b600060208284031215610f2257610f21610d04565b5b6000610f3084828501610e9c565b91505092915050565b6000819050919050565b6000610f5e610f59610f5484610d6c565b610f39565b610d6c565b9050919050565b6000610f7082610f43565b9050919050565b6000610f8282610f65565b9050919050565b610f9281610f77565b82525050565b6000602082019050610fad6000830184610f89565b92915050565b600082825260208201905092915050565b7f496e76616c696420616d6f756e74000000000000000000000000000000000000600082015250565b6000610ffa600e83610fb3565b915061100582610fc4565b602082019050919050565b6000602082019050818103600083015261102981610fed565b9050919050565b60008151905061103f81610d13565b92915050565b60006020828403121561105b5761105a610d04565b5b600061106984828501611030565b91505092915050565b7f4e6f7420656e6f75676820746f6b656e73000000000000000000000000000000600082015250565b60006110a8601183610fb3565b91506110b382611072565b602082019050919050565b600060208201905081810360008301526110d78161109b565b9050919050565b60006060820190506110f36000830186610d9e565b6111006020830185610d9e565b61110d6040830184610dad565b949350505050565b61111e81610dbc565b811461112957600080fd5b50565b60008151905061113b81611115565b92915050565b60006020828403121561115757611156610d04565b5b60006111658482850161112c565b91505092915050565b7f4e487b7100000000000000000000000000000000000000000000000000000000600052601160045260246000fd5b60006111a882610d09565b91507fffffffffffffffffffffffffffffffffffffffffffffffffffffffffffffffff82036111da576111d961116e565b5b600182019050919050565b7f496e616374697665000000000000000000000000000000000000000000000000600082015250565b600061121b600883610fb3565b9150611226826111e5565b602082019050919050565b6000602082019050818103600083015261124a8161120e565b9050919050565b7f4e6f7420656e6f75676820617661696c61626c65000000000000000000000000600082015250565b6000611287601483610fb3565b915061129282611251565b602082019050919050565b600060208201905081810360008301526112b68161127a565b9050919050565b60006112c882610d09565b91506112d383610d09565b92508282026112e181610d09565b915082820484148315176112f8576112f761116e565b5b5092915050565b7f4e487b7100000000000000000000000000000000000000000000000000000000600052601260045260246000fd5b600061133982610d09565b915061134483610d09565b925082611354576113536112ff565b5b828204905092915050565b7f496e73756666696369656e74207061796d656e74000000000000000000000000600082015250565b6000611395601483610fb3565b91506113a08261135f565b602082019050919050565b600060208201905081810360008301526113c481611388565b9050919050565b60006040820190506113e06000830185610d9e565b6113ed6020830184610dad565b9392505050565b600081905092915050565b50565b600061140f6000836113f4565b915061141a826113ff565b600082019050919050565b600061143082611402565b9150819050919050565b7f5061796d656e74206661696c6564000000000000000000000000000000000000600082015250565b6000611470600e83610fb3565b915061147b8261143a565b602082019050919050565b6000602082019050818103600083015261149f81611463565b9050919050565b60006114b182610d09565b91506114bc83610d09565b92508282039050818111156114d4576114d361116e565b5b92915050565b600060a0820190506114ef6000830188610dad565b6114fc6020830187610d9e565b6115096040830186610d9e565b6115166060830185610dad565b6115236080830184610dad565b9695505050505050565b7f4f6e6c7920726567697374727900000000000000000000000000000000000000600082015250565b6000611563600d83610fb3565b915061156e8261152d565b602082019050919050565b6000602082019050818103600083015261159281611556565b905091905056fea264697066735822122001e8f9db9e0b05b7645856cff66dff1200ec837ea21e732618b09f3334124be964736f6c63430008180033",
  "linkReferences": {},
  "deployedLinkReferences": {}
}